:020000040000fa
:080000001a02040000000000d8
:020000040000fa
:1004000000000000000000000000000000000000ec
:020000040000fa
:10000800fc0d0000fc0d0000fc0d0000fc0d0000c4
:10001800fc0d0000fc0d0000fc0d0000fc0d0000b4
:10002800fc0d0000fc0d0000fc0d0000fc0d0000a4
:10003800fc0d0000fc0d0000fc0d0000c8090000cc
:10004800fc0d0000fc0d0000fc0d0000fc0d000084
:10005800fc0d0000fc0d0000fc0d0000fc0d000074
:10006800fc0d0000fc0d0000fc0d0000fa0b000068
:10007800fc0d0000fc0d0000fc0d0000fc0d000054
:10008800fc0d0000fc0d0000fc0d0000fc0d000044
:10009800d0040000fc0d0000fc0d0000fc0d000069
:1000a800fc0d0000fc0d0000fc0d0000fc0d000024
:1000b800fc0d0000fc0d0000fc0d0000fc0d000014
:1000c800fc0d0000fc0d0000fc0d0000fc0d000004
:1000d800fc0d0000fc0d0000fc0d0000fc0d0000f4
:1000e800fc0d0000fc0d0000fc0d0000fc0d0000e4
:1000f800fc0d0000fc0d0000fc0d0000fc0d0000d4
:10010800fc0d0000fc0d0000fc0d0000fc0d0000c3
:10011800fc0d0000fc0d0000fc0d0000fc0d0000b3
:10012800fc0d0000fc0d0000fc0d0000fc0d0000a3
:10013800fc0d0000fc0d0000fc0d0000fc0d000093
:10014800fc0d0000fc0d0000fc0d0000fc0d000083
:10015800fc0d0000fc0d0000fc0d0000fc0d000073
:10016800fc0d0000fc0d0000fc0d0000fc0d000063
:10017800fc0d0000fc0d0000fc0d0000fc0d000053
:10018800fc0d0000fc0d0000fc0d0000fc0d000043
:10019800fc0d0000fc0d0000fc0d0000fc0d000033
:1001a800fc0d0000fc0d0000fc0d0000fc0d000023
:1001b800fc0d0000fc0d0000fc0d0000fc0d000013
:1001c800fc0d0000fc0d0000fc0d0000fc0d000003
:1001d800fc0d0000fc0d0000fc0d0000fc0d0000f3
:1001e800fc0d0000fc0d0000fc0d0000fc0d0000e3
:0801f800fc0d0000fc0d0000ed
:020000040000fa
:10020800fc0d0000fc0d0000fc0d0000fc0d0000c2
:10021800fc0d0000fc0d0000fc0d0000fc0d0000b2
:10022800fc0d0000fc0d0000fc0d0000fc0d0000a2
:10023800fc0d0000fc0d0000fc0d0000c8090000ca
:10024800fc0d0000fc0d0000fc0d0000fc0d000082
:10025800fc0d0000fc0d0000fc0d0000fc0d000072
:10026800fc0d0000fc0d0000fc0d0000fa0b000066
:10027800fc0d0000fc0d0000fc0d0000fc0d000052
:10028800fc0d0000fc0d0000fc0d0000fc0d000042
:10029800d0040000fc0d0000fc0d0000fc0d000067
:1002a800fc0d0000fc0d0000fc0d0000fc0d000022
:1002b800fc0d0000fc0d0000fc0d0000fc0d000012
:1002c800fc0d0000fc0d0000fc0d0000fc0d000002
:1002d800fc0d0000fc0d0000fc0d0000fc0d0000f2
:1002e800fc0d0000fc0d0000fc0d0000fc0d0000e2
:1002f800fc0d0000fc0d0000fc0d0000fc0d0000d2
:10030800fc0d0000fc0d0000fc0d0000fc0d0000c1
:10031800fc0d0000fc0d0000fc0d0000fc0d0000b1
:10032800fc0d0000fc0d0000fc0d0000fc0d0000a1
:10033800fc0d0000fc0d0000fc0d0000fc0d000091
:10034800fc0d0000fc0d0000fc0d0000fc0d000081
:10035800fc0d0000fc0d0000fc0d0000fc0d000071
:10036800fc0d0000fc0d0000fc0d0000fc0d000061
:10037800fc0d0000fc0d0000fc0d0000fc0d000051
:10038800fc0d0000fc0d0000fc0d0000fc0d000041
:10039800fc0d0000fc0d0000fc0d0000fc0d000031
:1003a800fc0d0000fc0d0000fc0d0000fc0d000021
:1003b800fc0d0000fc0d0000fc0d0000fc0d000011
:1003c800fc0d0000fc0d0000fc0d0000fc0d000001
:1003d800fc0d0000fc0d0000fc0d0000fc0d0000f1
:1003e800fc0d0000fc0d0000fc0d0000fc0d0000e1
:0803f800fc0d0000fc0d0000eb
:020000040000fa
:1004100022200000060400001e1c0000161400002c
:10042000322e00002c120000102a000028260000a6
:10043000082400004507a90000002000403a880079
:100440004fa8200000ff20000001880000000000ed
:1004500081e0a8004440a8000000eb003c00090037
:100460000060fe000000e900fcff3a004007ae001b
:10047000050037004007a900408020000005fc006f
:100480003f0109000018eb00c422ef00cc22ef006e
:10049000d422ef00cce2a800d502a800c542a800f3
:1004a000c022ef00c822ef00d022ef000548a900cb
:1004b000c002a800e004a9005640a8007f0009007f
:1004c0000060fe00c202af000548a8005640a90027
:1004d0006e40a8007f0009000060fe00c202af006d
:1004e0000548aa006e40a9000548aa00c022a8003d
:1004f000e024a9006e60a800c122a800e124a900a0
:100500007240a800100009000060fe006640a800cc
:100510009660a8000548ae000c003700c002a80095
:10052000e004a8005640a80000002000401a8800ff
:1005300000072000001a880060f12100201a8800be
:100540004143a80041e3a8004023a800e0022000a6
:10055000b00c8800000d8800500d8800c0002100fc
:10056000900c8800e00c8800300d8800a00b200063
:100570006008880011e1a8000060fe00c222ae0001
:10058000fdff3700f0ff27001008880005e1a800f4
:10059000008520006804fc00190109000018eb0028
:1005a0000408a9000428a9000468a9000568a90096
:1005b000f00f2000e0428800a044880060468800d8
:1005c00001002000ee0b0200000000000040880047
:1005d00021002000ee0b0200000000008080ea00f5
:1005e000020032006042880002003700e0ff27006e
:1005f00060428800900020000008e30005003600fb
:100600000008e20002003d000040880001003700c1
:100610000028ef0000408000006001000900370062
:1006200024003700430037003f0037005a003700ee
:100630005800370083003700a1003700c70037009b
:10064000ce00370000002000804288000009200012
:10065000404488000012200000468800a0f32b00d0
:10066000c042880080448800404688001000200076
:10067000a04288006044880020468800b04288007c
:100680007044880030468800e000200090428800d6
:100690005044880010468800a08f200035000900d3
:1006a00030f0a000fbe8a9001fe9a90043e9a90078
:1006b000ea0037000000200080428800401420003b
:1006c000404488008028200000468800f0ff270072
:1006d000c042880080448800404688001000200006
:1006e000a042880060448800204688002000200046
:1006f000b042880070448800304688009000200096
:10070000904288005044880010468800a08f200046
:100710003500090030f0a000fbe8a9001fe9a9009e
:1007200043e9a900cd0037006208a8009a08a80094
:10073000d208a800f0ff2700c0428800f0ff270081
:1007400080448800f0ff2700404688001000200009
:10075000a04288006044880020468800b04288009b
:100760007044880030468800c00120009042880014
:100770005044880010468800a08f200035000900f2
:1007800030f0a000fbe8a9002be9a9005be9a90073
:10079000b2003700d208a8000428a800a05f2000fb
:1007a000e042880000002000804288004044880029
:1007b0000046880000002100c0428800f0ff2f00a2
:1007c00080448800f0ff2f00404688001000200081
:1007d000a0428800f00f2000604488000002200042
:1007e00020468800a05f2000b04288000000200062
:1007f000704488001000200030468800100020005f
:10080000904288000000200050448800e000200052
:1008100010468800609620003500090030f0a000e6
:1008200067e9a9008be9a900afe9a900d228a800cf
:1008300010002000704688000000200080468800dc
:10084000860037000428a80000602000e0428800ed
:100850000000200080428800404488000046880054
:10086000f0ff2000c0428800f0ff2f008044880085
:10087000f0ff2f004046880010002000a0428800b2
:10088000f00f2000604488001000200020468800ff
:1008900000602000b0428800000020007044880002
:1008a000304688004000200090428800609620007a
:1008b0001100090030f0a00067e9a90067003700c7
:1008c0000000200080428800002020004044880072
:1008d0000040200000468800f0ff2f00c042880042
:1008e000804488004046880010002000a042880014
:1008f0006044880020468800b04288007044880028
:1009000030468800e0002000904288005044880073
:1009100010468800a08f20003500090030f0a000ac
:10092000fbe8a9001fe9a90043e9a9006228a80083
:100930009a28a800d228a80010002000f0428800c1
:10094000b044880070468800c03f20000043880003
:10095000c044880080468800400037000548af004a
:10096000020037000028ef00c60037000468a80026
:10097000c0752000c0478800380037000548af0028
:10098000020037000028ef00be0037000468a8000e
:100990000428a80080702000c04788002f0037007e
:1009a0000228ef000060fe0040a7a90005e1a900b1
:1009b00011e1a90094e0a90084e0a9009780a900b2
:1009c0008780a900c0a2ef00c8a2ef00d0a2ef006c
:1009d000c222ae00feff37000000eb007f000900de
:1009e0000060fe000000e900fcff3a00c322ae00f8
:1009f000feff370004e8a9008660a9006260a80035
:100a00009660a8000040fe00c222ae001100370030
:100a1000f0ff2700100888008460a90005e1a80005
:100a2000a00f20006040880004e8af0006003700f7
:100a30008460ae00fcff37008460a9000c28ed0044
:100a4000f9ff3a00e9ff3700100020000808e30032
:100a5000e6ff3a004007a8000000fe000060fe002c
:100a600040a7a80094e0a8008460ae00feff370015
:100a70008460a9000c28ed004200ae0010a8ef0031
:100a800004e8ae007700370004e8a9001000200059
:100a90000808e30073003a00304080001008e300cb
:100aa0007000320080408800a10f20006140880063
:100ab00001002000a1018800215a2800025d2800c1
:100ac0003100e100030032000208e100fcff3a00bf
:100ad00064003700225a2800828050008100d10033
:100ae0008100e900016001002d0037002c00370073
:100af0002d0037002c0037002d003700350037005f
:100b0000340037003d0037003c003700a4ff3700b9
:100b1000a3ff370042003700410037004000370094
:100b20003f0037003e0037003d0037003c003700f3
:100b30003b0037003a003700390037003a003700f1
:100b40003f00370074000000100000007500000036
:100b500011000000650000003300000012000000da
:100b600034000000130000001500000036000000f3
:100b7000000000000100000002000000030000006f
:100b8000040000000500000006000000070000004f
:100b9000080000000900000014000000160000001a
:100ba0000028ec00370037000028ed003500370042
:100bb0004c08e200020032004c28ef002900370008
:100bc00021002000ee0b02000000000060428800bf
:100bd00024003700f0ff2e004c08e30021003e0007
:100be000000021004c28b400604280002100200059
:100bf000c60b0200000000001a00370000002100b0
:100c00004c08e300170036004c28b5006042800015
:100c100021002000c60b0200000000001100370078
:100c200000408800170037000508aa000508ae003c
:100c30000528aa000528af000508aa00090037000a
:100c4000e0ff27006042880021002000c60b020060
:100c5000000000000508a9000528a9000028ef00f1
:100c60000800370036080200000000004628af00e8
:100c70004bff37004648ae000d0037004648a9003c
:100c80000028ec0094e0a9000060fe0084e0ae00c3
:100c9000fdff37000040800001002000c60b02006d
:100ca000000000000060fe0040a7a90035fe3700ec
:100cb0000468ae0003003700c40702000000000013
:100cc00003003700604280004e28b40066ff390000
:100cd000f808e20002003200c04780000000010076
:100ce0000428af000f0037000408a8000185200089
:100cf000a28f2000780802000000000081882000f8
:100d0000e29120007808020000000000018c200021
:100d10002294200078080200000000000408a900c6
:100d200051ff3700018520006296200078080200fc
:100d30000000000081882000a298200078080200ae
:100d400000000000018c2000e29a200078080200d8
:100d500000000000040902000000000042ff37000c
:100d6000a28f2000e3912000500e20003608b5002d
:100d7000f10f20003002b10002003b0080804000f3
:100d8000010037008080500001003b008000eb0034
:100d9000011978000390e700f5ff37002394200045
:100da000200f20003808b500f10f2000d002b1005c
:100db00002003b008080400001003700808050002e
:100dc00001003b008000eb00011978000390e70070
:100dd000f5ff370063962000301520003a08b50073
:100de000f10f20001004b10002003b0080804000a1
:100df000010037008100780001003b008000eb001b
:100e0000011978000390e700f5ff370000000600a5
:100e1000e29a2000239d2000500e20003608b500e5
:100e2000f10f20003002b10002003b008080400042
:100e3000010037008100780001003b008000eb00da
:100e4000011978000390e700f5ff37006296200053
:100e5000a3982000201220003608b500f10f2000d2
:100e6000a000b10002003b000082400001003700fa
:100e70000082500001003b000402ea004428ec001c
:100e800025428000c82ade0005024200f40fb200ad
:100e90006622b800041978000390e700f0ff3700dd
:100ea000a2982000f00f20001200fc0011000900a1
:100eb00000197800000006000408a800b00602002f
:100ec000000000000488ae0005003700b04180003b
:100ed000411f20000100e10009003e000488a90034
:100ee000b0418000412420000100e10004003900ed
:100ef0004228ec00c05d2000004288000488a80061
:100f0000b0418000010420000100e10003003e0028
:100f10004028ed0001003a004228ef004208af00ef
:100f2000aa070200000000004228af00a407020048
:100f3000000000004248af00b007020000000000bf
:100f40000408a90000000600a18f2000e291200003
:100f500005003700a18f20002294200002003700f6
:100f6000e191200022942000820178004302b00029
:100f70001200780011197800801878000390e700bb
:100f8000fbff37000000060085a0ae000000060051
:100f900085a0a9004023a80000188000218120001e
:100fa000124180008030790022a8ec00e30020008c
:100fb0000310e1004200af002228ef000001eb0027
:100fc0000800fc0007000900310141004311de0068
:100fd0000202b1004260af000001eb00e241880074
:100fe000e0418000011920000100e100020035000d
:100ff000010040000000d100f13f20000100e100ad
:1010000001003600010078003608e30002003400d9
:101010003628ed0001003700b04188000568a900be
:101020003608e2004220af000568a8003808e30057
:101030000300340038a8ed003808e30001003c004c
:10104000c04188003a08e300060034003aa8ed00e9
:101050003a08e300030034003aa8ed003a08e30040
:1010600001003c00d04188000000060010168000fe
:101070000010a30048a8d6006184200044080200a4
:1010800000000000000006001100a7000800370063
:10109000f0ff2f00110190000201600003003a00f0
:1010a0001100a000000f2000a00098000000060022
:1010b000f0ff2f00110190000201600000016900a3
:1010c00003003a001100a1001120a000000006005a
:1010d000648140001209e9000100320000000600ae
:1010e0001110a000000f2000a000980000000600d2
:1010f000608040001000e000020032001008e900ab
:101100000000060041009000ea8140009309400081
:101110000100310000000600820478002002200057
:101120008005410021069000b10690001104900056
:101130006107900088035700110b90000600a7007c
:101140000200370062054100010037000b057800fe
:10115000f4824000f0ff23001900600019f0a6009f
:1011600003003700950ae9001b003a0019f0a100be
:1011700019e0a7000d0037000040e7001af0a100b9
:101180000c0040000e00e100130039000e00780052
:1011900019e0a2000610a6000f00370019f0a00009
:1011a000f1019000830a78000b0037000038e70057
:1011b0001af0a1000d005000070031000000eb0004
:1011c00019e0a2000610a6000300370019f0a000e5
:1011d00081099000830a780003002c00998c61003b
:1011e000990c70000b48e700000006008582e800bb
:1011f0008984e8000a85e8000b50e600d5ff370037
:1012000002057800d3ff370063962000a78f2000e7
:10121000c99120000408a800f0ff23001302780001
:1012200004026000a3129000850260004323900036
:10123000060360002c090200000000000938e100ec
:10124000030032008381e8008783e800f2ff370063
:101250000408a900000006000500e00004003a00b0
:10126000860b7800a6139800c6239800000006009d
:10127000e45388004820de00d05388004800dd0099
:101280007c2ab50000102000050050000600b800c0
:101290004800de00f0538800e05380000500b800ed
:1012a0004800de000000ea000010b0000600b800b0
:1012b0004800de0000548800e05380000000ea008f
:1012c0000010b0000500b8004800de000000ea0091
:1012d0000010b0000600b8004800de00105488007e
:1012e000d053800000600100050037000a0037007d
:1012f0000f00370014003700190037001e003700b8
:10130000860b780010548000a0139800f0538000e2
:10131000c02398000000060000548000800b780075
:10132000a6139800f0538000c02398000000060028
:10133000f0538000800b7800a613980010548000b2
:10134000c023980000000600f0538000800b780056
:1013500000548000a0139800c623980000000600e7
:1013600010548000800b7800f0538000a013980088
:10137000c623980000000600860b7800f05380001a
:10138000a013980000548000c023980000000600bd
:1013900000a0fe00849fbe00904e8000006001000f
:1013a000480037000f0037001b003700d229ef003c
:1013b000b04e80000568ae00a00c880040c021003f
:1013c0000568ae00800c8800a0538000b1538000f7
:1013d00060168800a11688009a0a0200000000002a
:1013e0004b003700b04e80000568ae00f00c88005e
:1013f00040c021000568ae00d00c8800a0538000da
:10140000b153800060168800a1168800a00a02006f
:10141000000000003e003700b04e80000568ae00be
:10142000400d880040c021000568ae00200d8800f6
:10143000a0538000b153800060168800a116880078
:10144000d4a9ec00f00f2000d409e30021003600fd
:101450000408af001b003700000020009001880046
:101460000000eb0085202000a18f2000e4912000e7
:10147000829d20003540ba00313178000408e10037
:10148000fcff3a0085202000e191200024942000f8
:10149000c2a020003540ba00313178000408e100d4
:1014a000fcff3a0085202000219420006496200053
:1014b00002a420003540ba00313178000408e10070
:1014c000fcff3a00d429ef00d429ec0020002000d2
:1014d000904e8800a101800000002000a00188003b
:1014e00063ac2800a04e80000508af000000d100ca
:1014f0000528af000000d1000000a10063007800c3
:10150000b04e8800a1018800940a0200000000008b
:10151000d229ec000060fe004f02be000080fe00f9
:1015200084e0a90000400600819d200042a7200021
:1015300005003700c1a0200042a7200002003700ac
:1015400001a4200042a72000a34e80000400280030
:1015500004097800310078000304e1001289d30007
:10156000fcff39000281e800042020000409780013
:10157000310078000304e1001289d300fcff390038
:10158000050009001209d100000006002f0000002c
:101590002f0000002f0000002f0000002f0000008f
:1015a0002f0000002f0000002f000000300000007e
:1015b0003100000032000000330000003400000061
:1015c0003500000036000000370000003800000041
:1015d000390000003a0000003b0000003b00000022
:1015e0003c0000003d0000003e0000003f00000005
:1015f00040000000410000004200000043000000e5
:1016000044000000450000004600000047000000c4
:101610004700000048000000490000004a000000a8
:101620004b0000004c0000004d0000004e00000088
:101630004f00000050000000510000005200000068
:10164000530000005400000054000000550000004a
:10165000560000005700000058000000590000002c
:101660005a0000005b0000005c0000005d0000000c
:101670005e0000005f0000006000000060000000ed
:1016800061000000620000006300000064000000d0
:1016900065000000660000006700000068000000b0
:1016a000690000006a0000006b0000006c00000090
:1016b0006d0000006d0000006e0000006f00000073
:1016c0007000000071000000720000007300000054
:1016d0007400000075000000760000007700000034
:1016e0007800000079000000790000007a00000016
:1016f0007b0000007c0000007d0000007e000000f8
:101700007f000000800000008100000082000000d7
:1017100083000000840000008500000086000000b7
:10172000860000008700000088000000890000009b
:101730008a0000008b0000008c0000008d0000007b
:101740008e0000008f00000090000000910000005b
:10175000920000009200000093000000940000003e
:10176000950000009600000097000000980000001f
:10177000990000009a0000009b0000009c000000ff
:101780009d0000009e0000009f000000f207200066
:101790009201880002e02f00810041008008bb0018
:1017a0006027ef0061c7a8006047a8000700fc00a1
:1017b00051052000313b8800a10a2000313b880000
:1017c00061e7a80000000000000000000060fe00cb
:1017d00061e7af00fdff370000000600f2072000c0
:1017e0009201880002e02f00810041001100ba0040
:1017f0000000060000a0fe00c322af000600370074
:1018000000d02700700888000a21ef008500a90099
:1018100013e1a8001a00370013e1a9008500af000a
:101820001400370004a8ae00150037000084230020
:101830000a01e3000aa8d7001100390050408000d7
:101840004400de000e08e300020032007040880011
:1018500006003700304088004700de004040880026
:10186000f00720000628b60004e8a80004a8a90094
:1018700003003700008020005040880004a8a80022
:0c1880008660a9000080fe000040060009
:020000040000fa
:10188c0000080000840200000200000000000000bc
:10189c000000000000000000000000000000ff003d
:1018ac0000ff00000000000000000000000000002d
:1018bc00000000000000000000000000000000001c
:1018cc00000000000000000000000000000000000c
:1018dc0000000000000000000000000000000000fc
:1018ec0000000000000000000000000000000000ec
:020000040000fa
:081bf8000040da000000fe00cd
:00000001FF
